{
    "contractName": "EVMAIAgentEscrow",
    "abi": [
        {
            "inputs": [
                {
                    "internalType": "address",
                    "name": "target",
                    "type": "address"
                }
            ],
            "name": "AddressEmptyCode",
            "type": "error"
        },
        {
            "inputs": [
                {
                    "internalType": "address",
                    "name": "implementation",
                    "type": "address"
                }
            ],
            "name": "ERC1967InvalidImplementation",
            "type": "error"
        },
        {
            "inputs": [],
            "name": "ERC1967NonPayable",
            "type": "error"
        },
        {
            "inputs": [],
            "name": "EscrowNotFound",
            "type": "error"
        },
        {
            "inputs": [],
            "name": "EscrowNotPending",
            "type": "error"
        },
        {
            "inputs": [],
            "name": "ExpirationInThePast",
            "type": "error"
        },
        {
            "inputs": [],
            "name": "FailedCall",
            "type": "error"
        },
        {
            "inputs": [],
            "name": "HasPendingPrompts",
            "type": "error"
        },
        {
            "inputs": [],
            "name": "InsufficientSpendingLimitAllowance",
            "type": "error"
        },
        {
            "inputs": [],
            "name": "InvalidInitialization",
            "type": "error"
        },
        {
            "inputs": [],
            "name": "NoActiveSpendingLimit",
            "type": "error"
        },
        {
            "inputs": [],
            "name": "NotEVMAIAgent",
            "type": "error"
        },
        {
            "inputs": [],
            "name": "NotInitializing",
            "type": "error"
        },
        {
            "inputs": [],
            "name": "NotOracle",
            "type": "error"
        },
        {
            "inputs": [],
            "name": "NotPromptOwner",
            "type": "error"
        },
        {
            "inputs": [
                {
                    "internalType": "address",
                    "name": "owner",
                    "type": "address"
                }
            ],
            "name": "OwnableInvalidOwner",
            "type": "error"
        },
        {
            "inputs": [
                {
                    "internalType": "address",
                    "name": "account",
                    "type": "address"
                }
            ],
            "name": "OwnableUnauthorizedAccount",
            "type": "error"
        },
        {
            "inputs": [],
            "name": "PromptNotCancellableYet",
            "type": "error"
        },
        {
            "inputs": [],
            "name": "PromptNotRefundableYet",
            "type": "error"
        },
        {
            "inputs": [],
            "name": "SpendingLimitExpired",
            "type": "error"
        },
        {
            "inputs": [],
            "name": "UUPSUnauthorizedCallContext",
            "type": "error"
        },
        {
            "inputs": [
                {
                    "internalType": "bytes32",
                    "name": "slot",
                    "type": "bytes32"
                }
            ],
            "name": "UUPSUnsupportedProxiableUUID",
            "type": "error"
        },
        {
            "inputs": [],
            "name": "ZeroAddress",
            "type": "error"
        },
        {
            "inputs": [],
            "name": "ZeroSpendingLimit",
            "type": "error"
        },
        {
            "anonymous": false,
            "inputs": [
                {
                    "indexed": true,
                    "internalType": "uint256",
                    "name": "newFee",
                    "type": "uint256"
                }
            ],
            "name": "BranchFeeUpdated",
            "type": "event"
        },
        {
            "anonymous": false,
            "inputs": [
                {
                    "indexed": true,
                    "internalType": "uint256",
                    "name": "newFee",
                    "type": "uint256"
                }
            ],
            "name": "CancellationFeeUpdated",
            "type": "event"
        },
        {
            "anonymous": false,
            "inputs": [
                {
                    "indexed": false,
                    "internalType": "uint64",
                    "name": "version",
                    "type": "uint64"
                }
            ],
            "name": "Initialized",
            "type": "event"
        },
        {
            "anonymous": false,
            "inputs": [
                {
                    "indexed": true,
                    "internalType": "uint256",
                    "name": "newFee",
                    "type": "uint256"
                }
            ],
            "name": "MetadataUpdateFeeUpdated",
            "type": "event"
        },
        {
            "anonymous": false,
            "inputs": [
                {
                    "indexed": true,
                    "internalType": "address",
                    "name": "previousOwner",
                    "type": "address"
                },
                {
                    "indexed": true,
                    "internalType": "address",
                    "name": "newOwner",
                    "type": "address"
                }
            ],
            "name": "OwnershipTransferred",
            "type": "event"
        },
        {
            "anonymous": false,
            "inputs": [
                {
                    "indexed": true,
                    "internalType": "uint256",
                    "name": "escrowId",
                    "type": "uint256"
                },
                {
                    "indexed": true,
                    "internalType": "address",
                    "name": "user",
                    "type": "address"
                },
                {
                    "indexed": true,
                    "internalType": "uint256",
                    "name": "amount",
                    "type": "uint256"
                }
            ],
            "name": "PaymentEscrowed",
            "type": "event"
        },
        {
            "anonymous": false,
            "inputs": [
                {
                    "indexed": true,
                    "internalType": "uint256",
                    "name": "escrowId",
                    "type": "uint256"
                }
            ],
            "name": "PaymentFinalized",
            "type": "event"
        },
        {
            "anonymous": false,
            "inputs": [
                {
                    "indexed": true,
                    "internalType": "uint256",
                    "name": "escrowId",
                    "type": "uint256"
                }
            ],
            "name": "PaymentRefunded",
            "type": "event"
        },
        {
            "anonymous": false,
            "inputs": [
                {
                    "indexed": true,
                    "internalType": "address",
                    "name": "user",
                    "type": "address"
                },
                {
                    "indexed": true,
                    "internalType": "uint256",
                    "name": "answerMessageId",
                    "type": "uint256"
                }
            ],
            "name": "PromptCancelled",
            "type": "event"
        },
        {
            "anonymous": false,
            "inputs": [
                {
                    "indexed": true,
                    "internalType": "uint256",
                    "name": "newFee",
                    "type": "uint256"
                }
            ],
            "name": "PromptFeeUpdated",
            "type": "event"
        },
        {
            "anonymous": false,
            "inputs": [
                {
                    "indexed": true,
                    "internalType": "address",
                    "name": "user",
                    "type": "address"
                }
            ],
            "name": "SpendingLimitCancelled",
            "type": "event"
        },
        {
            "anonymous": false,
            "inputs": [
                {
                    "indexed": true,
                    "internalType": "address",
                    "name": "user",
                    "type": "address"
                },
                {
                    "indexed": true,
                    "internalType": "uint256",
                    "name": "allowance",
                    "type": "uint256"
                },
                {
                    "indexed": true,
                    "internalType": "uint256",
                    "name": "expiresAt",
                    "type": "uint256"
                }
            ],
            "name": "SpendingLimitSet",
            "type": "event"
        },
        {
            "anonymous": false,
            "inputs": [
                {
                    "indexed": true,
                    "internalType": "address",
                    "name": "newTreasury",
                    "type": "address"
                }
            ],
            "name": "TreasuryUpdated",
            "type": "event"
        },
        {
            "anonymous": false,
            "inputs": [
                {
                    "indexed": true,
                    "internalType": "address",
                    "name": "implementation",
                    "type": "address"
                }
            ],
            "name": "Upgraded",
            "type": "event"
        },
        {
            "inputs": [],
            "name": "CANCELLATION_TIMEOUT",
            "outputs": [
                {
                    "internalType": "uint256",
                    "name": "",
                    "type": "uint256"
                }
            ],
            "stateMutability": "view",
            "type": "function"
        },
        {
            "inputs": [],
            "name": "REFUND_TIMEOUT",
            "outputs": [
                {
                    "internalType": "uint256",
                    "name": "",
                    "type": "uint256"
                }
            ],
            "stateMutability": "view",
            "type": "function"
        },
        {
            "inputs": [],
            "name": "UPGRADE_INTERFACE_VERSION",
            "outputs": [
                {
                    "internalType": "string",
                    "name": "",
                    "type": "string"
                }
            ],
            "stateMutability": "view",
            "type": "function"
        },
        {
            "inputs": [],
            "name": "ableToken",
            "outputs": [
                {
                    "internalType": "contract IERC20",
                    "name": "",
                    "type": "address"
                }
            ],
            "stateMutability": "view",
            "type": "function"
        },
        {
            "inputs": [],
            "name": "branchFee",
            "outputs": [
                {
                    "internalType": "uint256",
                    "name": "",
                    "type": "uint256"
                }
            ],
            "stateMutability": "view",
            "type": "function"
        },
        {
            "inputs": [
                {
                    "internalType": "uint256",
                    "name": "_answerMessageId",
                    "type": "uint256"
                }
            ],
            "name": "cancelPrompt",
            "outputs": [],
            "stateMutability": "nonpayable",
            "type": "function"
        },
        {
            "inputs": [],
            "name": "cancelSpendingLimit",
            "outputs": [],
            "stateMutability": "nonpayable",
            "type": "function"
        },
        {
            "inputs": [],
            "name": "cancellationFee",
            "outputs": [
                {
                    "internalType": "uint256",
                    "name": "",
                    "type": "uint256"
                }
            ],
            "stateMutability": "view",
            "type": "function"
        },
        {
            "inputs": [
                {
                    "internalType": "uint256",
                    "name": "",
                    "type": "uint256"
                }
            ],
            "name": "escrows",
            "outputs": [
                {
                    "internalType": "address",
                    "name": "user",
                    "type": "address"
                },
                {
                    "internalType": "uint256",
                    "name": "amount",
                    "type": "uint256"
                },
                {
                    "internalType": "uint256",
                    "name": "createdAt",
                    "type": "uint256"
                },
                {
                    "internalType": "enum EVMAIAgentEscrow.EscrowStatus",
                    "name": "status",
                    "type": "uint8"
                }
            ],
            "stateMutability": "view",
            "type": "function"
        },
        {
            "inputs": [],
            "name": "evmAIAgent",
            "outputs": [
                {
                    "internalType": "contract IEVMAIAgent",
                    "name": "",
                    "type": "address"
                }
            ],
            "stateMutability": "view",
            "type": "function"
        },
        {
            "inputs": [
                {
                    "internalType": "uint256",
                    "name": "_escrowId",
                    "type": "uint256"
                }
            ],
            "name": "finalizePayment",
            "outputs": [],
            "stateMutability": "nonpayable",
            "type": "function"
        },
        {
            "inputs": [
                {
                    "internalType": "address",
                    "name": "_tokenAddress",
                    "type": "address"
                },
                {
                    "internalType": "address",
                    "name": "_agentAddress",
                    "type": "address"
                },
                {
                    "internalType": "address",
                    "name": "_treasuryAddress",
                    "type": "address"
                },
                {
                    "internalType": "address",
                    "name": "_initialOwner",
                    "type": "address"
                },
                {
                    "internalType": "uint256",
                    "name": "_initialPromptFee",
                    "type": "uint256"
                },
                {
                    "internalType": "uint256",
                    "name": "_initialCancellationFee",
                    "type": "uint256"
                },
                {
                    "internalType": "uint256",
                    "name": "_initialMetadataUpdateFee",
                    "type": "uint256"
                },
                {
                    "internalType": "uint256",
                    "name": "_initialBranchFee",
                    "type": "uint256"
                }
            ],
            "name": "initialize",
            "outputs": [],
            "stateMutability": "nonpayable",
            "type": "function"
        },
        {
            "inputs": [
                {
                    "internalType": "address",
                    "name": "_user",
                    "type": "address"
                },
                {
                    "internalType": "uint256",
                    "name": "_jobId",
                    "type": "uint256"
                },
                {
                    "internalType": "bytes",
                    "name": "_encryptedPayload",
                    "type": "bytes"
                },
                {
                    "internalType": "bytes",
                    "name": "_roflEncryptedKey",
                    "type": "bytes"
                }
            ],
            "name": "initiateAgentJob",
            "outputs": [],
            "stateMutability": "nonpayable",
            "type": "function"
        },
        {
            "inputs": [
                {
                    "internalType": "uint256",
                    "name": "_originalConversationId",
                    "type": "uint256"
                },
                {
                    "internalType": "uint256",
                    "name": "_branchPointMessageId",
                    "type": "uint256"
                },
                {
                    "internalType": "bytes",
                    "name": "_encryptedPayload",
                    "type": "bytes"
                },
                {
                    "internalType": "bytes",
                    "name": "_roflEncryptedKey",
                    "type": "bytes"
                }
            ],
            "name": "initiateBranch",
            "outputs": [],
            "stateMutability": "nonpayable",
            "type": "function"
        },
        {
            "inputs": [
                {
                    "internalType": "uint256",
                    "name": "_conversationId",
                    "type": "uint256"
                },
                {
                    "internalType": "bytes",
                    "name": "_encryptedPayload",
                    "type": "bytes"
                },
                {
                    "internalType": "bytes",
                    "name": "_roflEncryptedKey",
                    "type": "bytes"
                }
            ],
            "name": "initiateMetadataUpdate",
            "outputs": [],
            "stateMutability": "nonpayable",
            "type": "function"
        },
        {
            "inputs": [
                {
                    "internalType": "uint256",
                    "name": "_conversationId",
                    "type": "uint256"
                },
                {
                    "internalType": "bytes",
                    "name": "_encryptedPayload",
                    "type": "bytes"
                },
                {
                    "internalType": "bytes",
                    "name": "_roflEncryptedKey",
                    "type": "bytes"
                }
            ],
            "name": "initiatePrompt",
            "outputs": [],
            "stateMutability": "nonpayable",
            "type": "function"
        },
        {
            "inputs": [
                {
                    "internalType": "uint256",
                    "name": "_conversationId",
                    "type": "uint256"
                },
                {
                    "internalType": "uint256",
                    "name": "_promptMessageId",
                    "type": "uint256"
                },
                {
                    "internalType": "uint256",
                    "name": "_previousAnswerMessageId",
                    "type": "uint256"
                },
                {
                    "internalType": "bytes",
                    "name": "_encryptedPayload",
                    "type": "bytes"
                },
                {
                    "internalType": "bytes",
                    "name": "_roflEncryptedKey",
                    "type": "bytes"
                }
            ],
            "name": "initiateRegeneration",
            "outputs": [],
            "stateMutability": "nonpayable",
            "type": "function"
        },
        {
            "inputs": [],
            "name": "metadataUpdateFee",
            "outputs": [
                {
                    "internalType": "uint256",
                    "name": "",
                    "type": "uint256"
                }
            ],
            "stateMutability": "view",
            "type": "function"
        },
        {
            "inputs": [],
            "name": "owner",
            "outputs": [
                {
                    "internalType": "address",
                    "name": "",
                    "type": "address"
                }
            ],
            "stateMutability": "view",
            "type": "function"
        },
        {
            "inputs": [
                {
                    "internalType": "address",
                    "name": "",
                    "type": "address"
                }
            ],
            "name": "pendingEscrowCount",
            "outputs": [
                {
                    "internalType": "uint256",
                    "name": "",
                    "type": "uint256"
                }
            ],
            "stateMutability": "view",
            "type": "function"
        },
        {
            "inputs": [
                {
                    "internalType": "uint256",
                    "name": "_answerMessageId",
                    "type": "uint256"
                }
            ],
            "name": "processRefund",
            "outputs": [],
            "stateMutability": "nonpayable",
            "type": "function"
        },
        {
            "inputs": [],
            "name": "promptFee",
            "outputs": [
                {
                    "internalType": "uint256",
                    "name": "",
                    "type": "uint256"
                }
            ],
            "stateMutability": "view",
            "type": "function"
        },
        {
            "inputs": [],
            "name": "proxiableUUID",
            "outputs": [
                {
                    "internalType": "bytes32",
                    "name": "",
                    "type": "bytes32"
                }
            ],
            "stateMutability": "view",
            "type": "function"
        },
        {
            "inputs": [],
            "name": "renounceOwnership",
            "outputs": [],
            "stateMutability": "nonpayable",
            "type": "function"
        },
        {
            "inputs": [
                {
                    "internalType": "uint256",
                    "name": "_newFee",
                    "type": "uint256"
                }
            ],
            "name": "setBranchFee",
            "outputs": [],
            "stateMutability": "nonpayable",
            "type": "function"
        },
        {
            "inputs": [
                {
                    "internalType": "uint256",
                    "name": "_newFee",
                    "type": "uint256"
                }
            ],
            "name": "setCancellationFee",
            "outputs": [],
            "stateMutability": "nonpayable",
            "type": "function"
        },
        {
            "inputs": [
                {
                    "internalType": "uint256",
                    "name": "_newFee",
                    "type": "uint256"
                }
            ],
            "name": "setMetadataUpdateFee",
            "outputs": [],
            "stateMutability": "nonpayable",
            "type": "function"
        },
        {
            "inputs": [
                {
                    "internalType": "uint256",
                    "name": "_newFee",
                    "type": "uint256"
                }
            ],
            "name": "setPromptFee",
            "outputs": [],
            "stateMutability": "nonpayable",
            "type": "function"
        },
        {
            "inputs": [
                {
                    "internalType": "uint256",
                    "name": "_allowance",
                    "type": "uint256"
                },
                {
                    "internalType": "uint256",
                    "name": "_expiresAt",
                    "type": "uint256"
                }
            ],
            "name": "setSpendingLimit",
            "outputs": [],
            "stateMutability": "nonpayable",
            "type": "function"
        },
        {
            "inputs": [
                {
                    "internalType": "address",
                    "name": "_newTreasury",
                    "type": "address"
                }
            ],
            "name": "setTreasury",
            "outputs": [],
            "stateMutability": "nonpayable",
            "type": "function"
        },
        {
            "inputs": [
                {
                    "internalType": "address",
                    "name": "",
                    "type": "address"
                }
            ],
            "name": "spendingLimits",
            "outputs": [
                {
                    "internalType": "uint256",
                    "name": "allowance",
                    "type": "uint256"
                },
                {
                    "internalType": "uint256",
                    "name": "spentAmount",
                    "type": "uint256"
                },
                {
                    "internalType": "uint256",
                    "name": "expiresAt",
                    "type": "uint256"
                }
            ],
            "stateMutability": "view",
            "type": "function"
        },
        {
            "inputs": [
                {
                    "internalType": "address",
                    "name": "newOwner",
                    "type": "address"
                }
            ],
            "name": "transferOwnership",
            "outputs": [],
            "stateMutability": "nonpayable",
            "type": "function"
        },
        {
            "inputs": [],
            "name": "treasury",
            "outputs": [
                {
                    "internalType": "address",
                    "name": "",
                    "type": "address"
                }
            ],
            "stateMutability": "view",
            "type": "function"
        },
        {
            "inputs": [
                {
                    "internalType": "address",
                    "name": "newImplementation",
                    "type": "address"
                },
                {
                    "internalType": "bytes",
                    "name": "data",
                    "type": "bytes"
                }
            ],
            "name": "upgradeToAndCall",
            "outputs": [],
            "stateMutability": "payable",
            "type": "function"
        }
    ],
    "bytecode": "60a0806040523460295730608052612019908161002e823960805181818161137c01526114720152f35b5f80fdfe6080806040526004361015610012575f80fd5b5f905f3560e01c908163012f52ee14611983575080631052d8b51461193d57806313159e64146116be5780631a04f42d146116a25780632dd10ad31461165a5780633b36a7de1461163c5780634f1ef286146113f75780635241e72f146113d057806352d1902d1461136957806355786ece1461106d57806355c9237c14610f5a578063588e0b8914610ce257806361cfdb1f14610c9a57806361d027b314610c71578063658c820a14610c205780636965880614610ac15780636ef569a514610aa3578063715018a614610a3a5780637d57900a14610a1d5780637f5a19f1146109aa5780638cb210c1146109265780638da5cb5b146108f1578063ad3cb1cc14610895578063c52248561461084d578063c843e81c14610626578063ccdb344214610608578063dac87ca4146105eb578063df13c27a146105b2578063ecad65b714610594578063edc37efc1461056b578063f0f44260146104f2578063f221c234146102ae578063f2fde38b146102815763f815267114610194575f80fd5b3461027e57604036600319011261027e57600435602435903383526008602052604083205461026f578015610260574282111561025157604051606081018181106001600160401b0382111761023d5760405281815260026020820185815260408301908582523387526007602052604087209351845551600184015551910155337f149b95d169259a113227b180d7190d669dcfdef24fe125d82cd13874e341a4f98480a480f35b634e487b7160e01b85526041600452602485fd5b631998135f60e21b8352600483fd5b632528eb5560e21b8352600483fd5b632753e5e560e21b8352600483fd5b80fd5b503461027e57602036600319011261027e576102ab61029e6119e0565b6102a6611d50565b611cdf565b80f35b503461027e5760a036600319011261027e576064356001600160401b0381116104ee576102df903690600401611a61565b6084929192356001600160401b0381116104ea579061030383923690600401611a61565b9461031060035433611d83565b6001546040516371668bd360e11b81529460209186916004918391906001600160a01b03165af19384156104df5785946104a7575b506003549560405196610357886119f6565b3388526020808901918252426040808b0191825260608b018a8152898b526009909352892099518a546001600160a01b0319166001600160a01b0391909116178a55915160018a0155905160028901555196600388101561049357869760036103c09201611b21565b600354946040519533827f2f3c4f27eb1db28d21f423c207ea1f397503ab0c3399982719e036d008398c588a80a46001546001600160a01b031692833b1561048f576104628795869461045086948c9a8b9763e88d193b60e01b8852336004890152600435602489015260243560448901526044356064890152608488015260e060a488015260e4870191611b39565b8481036003190160c486015291611b39565b03925af18015610484576104735750f35b8161047d91611a25565b61027e5780f35b6040513d84823e3d90fd5b8780fd5b634e487b7160e01b87526021600452602487fd5b9093506020813d6020116104d7575b816104c360209383611a25565b810103126104d35751925f610345565b5f80fd5b3d91506104b6565b6040513d87823e3d90fd5b8280fd5b5080fd5b503461027e57602036600319011261027e5761050c6119e0565b610514611d50565b6001600160a01b0316801561055c57600280546001600160a01b031916821790557f7dae230f18360d76a040c81f050aa14eb9d6dc7901b20fc5d855e2a20fe814d18280a280f35b63d92e233d60e01b8252600482fd5b503461027e578060031936011261027e576001546040516001600160a01b039091168152602090f35b503461027e578060031936011261027e576020600354604051908152f35b503461027e57602036600319011261027e576020906040906001600160a01b036105da6119e0565b168152600883522054604051908152f35b503461027e57602036600319011261027e576102ab600435611ba2565b503461027e578060031936011261027e576020600554604051908152f35b503461027e5761010036600319011261027e576106416119e0565b6024356001600160a01b038116908190036104ea576044356001600160a01b038116919082900361084957606435926001600160a01b0384168403610845575f516020611fc45f395f51905f52549360ff8560401c1615946001600160401b0381168015908161083d575b6001149081610833575b15908161082a575b5061081b5767ffffffffffffffff1981166001175f516020611fc45f395f51905f52556106fd9190866107ef575b506106f5611efa565b6102a6611efa565b610705611efa565b6001600160a01b0316801580156107e7575b80156107df575b6107d0576001600160601b0360a01b8554161784556001600160601b0360a01b60015416176001556001600160601b0360a01b600254161760025560843560035560a43560045560c43560055560e4356006556107785780f35b68ff0000000000000000195f516020611fc45f395f51905f5254165f516020611fc45f395f51905f52557fc7f505b2f371ae2175ee4913f4499e1f2633a7b5936321eed1cdaeb6115181d2602060405160018152a180f35b63d92e233d60e01b8552600485fd5b50821561071e565b508115610717565b68ffffffffffffffffff191668010000000000000001175f516020611fc45f395f51905f52555f6106ec565b63f92ee8a960e01b8752600487fd5b9050155f6106be565b303b1591506106b6565b8791506106ac565b8480fd5b8380fd5b503461027e57602036600319011261027e5760043561086a611d50565b806005557f319450fd8d3baff915a83e89c9ebb8265bd2cb1835352f3a3d7d6a5f99094ba28280a280f35b503461027e578060031936011261027e57604080516108b48282611a25565b6005815260208101640352e302e360dc1b81528251938492602084525180928160208601528585015e828201840152601f01601f19168101030190f35b503461027e578060031936011261027e575f516020611f845f395f51905f52546040516001600160a01b039091168152602090f35b503461027e578061093636611a8e565b929161094460055433611e60565b6001546001600160a01b031691823b156109a657610994956104628896928793604051998a98899788966328428b7d60e21b88523360048901526024880152608060448801526084870191611b39565b84810360031901606486015291611b39565b8680fd5b503461027e578060031936011261027e5733815260086020526040812054610a0e573381526007602052806002604082208281558260018201550155337fd814266a306964671aa20c3f1095fabf48d4924f1ab973d6334ccbd16a8a33738280a280f35b632753e5e560e21b8152600490fd5b503461027e578060031936011261027e576020604051610e108152f35b503461027e578060031936011261027e57610a53611d50565b5f516020611f845f395f51905f5280546001600160a01b0319811690915581906001600160a01b03167f8be0079c531659141344cd1fd0a4f28419497f9722a3daafe3b4186f6b6457e08280a380f35b503461027e578060031936011261027e576020600454604051908152f35b503461027e57602036600319011261027e57600154600435906001600160a01b03163303610c115780825260096020526040822080549091906001600160a01b03168015610c0257600383019060ff8254166003811015610bee57610bdf57906020929185526008835260408520610b398154611b15565b9055805460ff191660011790556040519283917fa3f0d45b13be973f775e525b275f23b411c2afafc91835e0a3e2a4b46e635f498680a284546002546001929092015463a9059cbb60e01b84526001600160a01b039283166004850152602484015260449183918791165af1801561048457610bb3575080f35b610bd49060203d602011610bd8575b610bcc8183611a25565b810190611afd565b5080f35b503d610bc2565b63291db2cb60e11b8552600485fd5b634e487b7160e01b86526021600452602486fd5b63f1d80ab160e01b8452600484fd5b6322fb47e960e01b8252600482fd5b503461027e57602036600319011261027e576060906040906001600160a01b03610c486119e0565b168152600760205220805490600260018201549101549060405192835260208301526040820152f35b503461027e578060031936011261027e576002546040516001600160a01b039091168152602090f35b503461027e57602036600319011261027e57600435610cb7611d50565b806003557f3fd8bf3c49bb6f6bc6c7f054afbd1438f44bc2a5dea88b6dfaf57dedbdeac35c8280a280f35b503461027e5780610cf236611a8e565b9092610d0060035433611d83565b8415610ee6575b6001546040516371668bd360e11b81529760209189916004918391906001600160a01b03165af1968715610edb578697610ea7575b506001546040516371668bd360e11b815290602090829060049082908b906001600160a01b03165af1908115610e9c578791610e6a575b506003549760405198610d858a6119f6565b338a526020808b01918252426040808d0191825260608d018c8152868d5260099093528b209b518c546001600160a01b0319166001600160a01b0391909116178c55915160018c0155905160028b0155519860038a1015610e565788996003610dee9201611b21565b600354966040519733847f2f3c4f27eb1db28d21f423c207ea1f397503ab0c3399982719e036d008398c588c80a46001546001600160a01b031694853b15610e52576307b5421760e11b89528997899788968a968896610462963360048a01611b59565b8980fd5b634e487b7160e01b89526021600452602489fd5b90506020813d602011610e94575b81610e8560209383611a25565b810103126104d357515f610d73565b3d9150610e78565b6040513d89823e3d90fd5b9096506020813d602011610ed3575b81610ec360209383611a25565b810103126104d35751955f610d3c565b3d9150610eb6565b6040513d88823e3d90fd5b60015460405163f6ecad5560e01b8152919550602090829060049082908a906001600160a01b03165af1908115610edb578691610f25575b5093610d07565b9550506020853d602011610f52575b81610f4160209383611a25565b810103126104d3578594515f610f1e565b3d9150610f34565b503461027e57608036600319011261027e57806044356001600160401b03811161106a57610f8c903690600401611a61565b606435906001600160401b03821161106757610fad84923690600401611a61565b9093610fbb60065433611e60565b60015460405163f6ecad5560e01b81529460209186916004918391906001600160a01b03165af1938415610edb578694611030575b506001546001600160a01b031691823b156109a657869461046286926040519889978896879563d17cae4560e01b87526024356004353360048a01611b59565b955092506020853d60201161105f575b8161104d60209383611a25565b810103126104d357859451925f610ff0565b3d9150611040565b50505b50fd5b503461027e57608036600319011261027e576110876119e0565b906024356044356001600160401b0381116104ea576110aa903690600401611a61565b6064356001600160401b038111610845576110c9903690600401611a61565b6001546040516307dc0d1d60e41b8152919492939190602090829060049082906001600160a01b03165afa908115610e9c578791611327575b506001600160a01b03163303611318579085929161112260035489611d83565b85156112a3575b60015460405163205999ed60e11b81529460209186916004918391906001600160a01b03165af1938415610e9c57879461126f575b5060035493604051986111708a6119f6565b6001600160a01b03908116808b526020808c01978852426040808e0191825260608e018d8152868e5260099093528c209c518d546001600160a01b0319169416939093178c55965160018c0155905160028b015594519860038a1015610e5657889960036111de9201611b21565b600354966040519786837f2f3c4f27eb1db28d21f423c207ea1f397503ab0c3399982719e036d008398c588c80a46001546001600160a01b031694853b15610e5257899761125d8a98968a968a9896610462968a986374a2716160e01b8a5260048a01526024890152604488015260a0606488015260a4870191611b39565b84810360031901608486015291611b39565b9093506020813d60201161129b575b8161128b60209383611a25565b810103126104d35751925f61115e565b3d915061127e565b94509091602060018060a01b036001541660046040518094819363c8f7f3df60e01b83525af1908115610edb57908693929184916112e3575b5094611129565b9350506020833d602011611310575b816112ff60209383611a25565b810103126104d3578592515f6112dc565b3d91506112f2565b631bc2178f60e01b8652600486fd5b90506020813d602011611361575b8161134260209383611a25565b810103126109a657516001600160a01b03811681036109a6575f611102565b3d9150611335565b503461027e578060031936011261027e577f00000000000000000000000000000000000000000000000000000000000000006001600160a01b031630036113c15760206040515f516020611fa45f395f51905f528152f35b63703e46dd60e11b8152600490fd5b503461027e578060031936011261027e57546040516001600160a01b039091168152602090f35b50604036600319011261027e5761140c6119e0565b602435906001600160401b0382116104ea57366023830112156104ea578160040135908361143983611a46565b936114476040519586611a25565b838552602085019336602482840101116104ea57806024602093018637850101526001600160a01b037f00000000000000000000000000000000000000000000000000000000000000001630811490811561161a575b5061160b576114aa611d50565b6040516352d1902d60e01b81526001600160a01b0382169390602081600481885afa8691816115d7575b506114ed57634c9c8ce360e01b86526004859052602486fd5b93845f516020611fa45f395f51905f528796036115c55750823b156115b3575f516020611fa45f395f51905f5280546001600160a01b031916821790558491907fbc7cd75a20ee27fd9adebab32041f755214dbc6bffa90cc0225b39da2e5c2d3b8380a280511561159857610bd49382915190845af43d15611590573d9161157483611a46565b926115826040519485611a25565b83523d85602085013e611f25565b606091611f25565b50505050346115a45780f35b63b398979f60e01b8152600490fd5b634c9c8ce360e01b8552600452602484fd5b632a87526960e21b8652600452602485fd5b9091506020813d602011611603575b816115f360209383611a25565b810103126109a65751905f6114d4565b3d91506115e6565b63703e46dd60e11b8452600484fd5b5f516020611fa45f395f51905f52546001600160a01b0316141590505f61149d565b503461027e578060031936011261027e576020600654604051908152f35b503461027e57602036600319011261027e57600435611677611d50565b806004557f5b81b8e66a81fbba6ded220cf668cb5da777acaa83cafe789c2699cad0efd8088280a280f35b503461027e578060031936011261027e57602060405160038152f35b50346104d35760203660031901126104d357600435805f52600960205260405f20335f52600760205260405f20903360018060a01b038254160361192e576003810160ff815416600381101561191a5761190b576002820154600381018091116118f75742106118e857600182019261174d611741600186549301928354611af0565b80835560045490611ae3565b90555f8054600254600480546040516323b872dd60e01b815233928101929092526001600160a01b039283166024830152604482015292602092849260649284929091165af180156118c0576118cb575b50335f52600860205260405f206117b58154611b15565b9055805460ff191660021790556001546001600160a01b0316803b156104d357604051631a7cc97960e31b815233600482015260248101859052905f908290604490829084905af180156118c0576118a3575b5083549054915460405163a9059cbb60e01b81526001600160a01b039384166004820152602481019190915291602091839116818681604481015b03925af180156118985761187b575b50337ff15c83325878e52421cfdea91b5b0c34775fe735c4cbb36435caabf62b4f422f8380a380f35b6118939060203d602011610bd857610bcc8183611a25565b611852565b6040513d85823e3d90fd5b6020919450916118b65f61184394611a25565b5f94915091611808565b6040513d5f823e3d90fd5b6118e39060203d602011610bd857610bcc8183611a25565b61179e565b633068a8bd60e11b5f5260045ffd5b634e487b7160e01b5f52601160045260245ffd5b63291db2cb60e11b5f5260045ffd5b634e487b7160e01b5f52602160045260245ffd5b63c5fde46b60e01b5f5260045ffd5b346104d35760203660031901126104d357600435611959611d50565b806006557f4e2e12fcddc1b371d183ac1bdf59f5f7163f95ca29db7711fb8b28ef01fe74e45f80a2005b346104d35760203660031901126104d3576004355f52600960205260405f209060018060a01b0382541691600181015460ff600360028401549301541693835260208301526040820152600382101561191a576080916060820152f35b600435906001600160a01b03821682036104d357565b608081019081106001600160401b03821117611a1157604052565b634e487b7160e01b5f52604160045260245ffd5b90601f801991011681019081106001600160401b03821117611a1157604052565b6001600160401b038111611a1157601f01601f191660200190565b9181601f840112156104d3578235916001600160401b0383116104d357602083818601950101116104d357565b9060606003198301126104d357600435916024356001600160401b0381116104d35781611abd91600401611a61565b92909291604435906001600160401b0382116104d357611adf91600401611a61565b9091565b919082018092116118f757565b919082039182116118f757565b908160209103126104d3575180151581036104d35790565b80156118f7575f190190565b90600381101561191a5760ff80198354169116179055565b908060209392818452848401375f828201840152601f01601f1916010190565b969492611b9f989692611b91959260018060a01b0316895260208901526040880152606087015260c0608087015260c0860191611b39565b9260a0818503910152611b39565b90565b805f52600960205260405f209060018060a01b03825416908115611cda57600383019260ff845416600381101561191a5761190b576002810154610e1081018091116118f7574210611ccb57611c9f936020935f526008845260405f20611c098154611b15565b9055600260ff198254161790556001810191825460018060a01b038354165f5260078552611c3f600160405f2001918254611af0565b90555f6040518096819582947fc12258dbc8f5aaf21f9b7ef40fbfb87befc7c46ac42dccc2c5cc565347e56ee68580a283549554905463a9059cbb60e01b84526001600160a01b0391821660048501526024840152909416936044820190565b03925af180156118c057611cb05750565b611cc89060203d602011610bd857610bcc8183611a25565b50565b6319ef5b0f60e01b5f5260045ffd5b505050565b6001600160a01b03168015611d3d575f516020611f845f395f51905f5280546001600160a01b0319811683179091556001600160a01b03167f8be0079c531659141344cd1fd0a4f28419497f9722a3daafe3b4186f6b6457e05f80a3565b631e4fbdf760e01b5f525f60045260245ffd5b5f516020611f845f395f51905f52546001600160a01b03163303611d7057565b63118cdaa760e01b5f523360045260245ffd5b6001600160a01b0381165f81815260076020526040902060028101548015611e5157421015611e42576001810190815490611dbe8683611ae3565b905410611e335784611dcf91611ae3565b90555f52600860205260405f20918254915f1983146118f7576001929092019092555f80546040516323b872dd60e01b81526001600160a01b0393841660048201523060248201526044810194909452602092849291169082908160648101611c9f565b633ee5d04160e01b5f5260045ffd5b632657502360e01b5f5260045ffd5b6321669a3360e21b5f5260045ffd5b9060018060a01b0382165f52600760205260405f209060028201548015611e5157421015611e42576001820192835492611e9a8385611ae3565b905410611e3357611c9f93611eb183602095611ae3565b90555f80546002546040516323b872dd60e01b81526001600160a01b03948516600482015290841660248201526044810194909452929485939092169183919082906064820190565b60ff5f516020611fc45f395f51905f525460401c1615611f1657565b631afcd79f60e31b5f5260045ffd5b90611f495750805115611f3a57602081519101fd5b63d6bda27560e01b5f5260045ffd5b81511580611f7a575b611f5a575090565b639996b31560e01b5f9081526001600160a01b0391909116600452602490fd5b50803b15611f5256fe9016d09d72d40fdae2fd8ceac6b6234c7706214fd39c1cd1e609a0528c199300360894a13ba1a3210667c828492db98dca3e2076cc3735a920a3ca505d382bbcf0c57e16840df040f15088dc2f81fe391c3923bec73e23a9662efc9c229c6a00a2646970667358221220086447371891dae197b489d635ef100f154b98e5e4ecefcbe715aa0cee2a0b0a64736f6c63430008210033",
    "sourcePath": "/Volumes/T7 Touch/Work/Tradable/Web and App Development/tokenized-ai-agent/contracts/EVMAIAgentEscrow.sol",
    "compiler": {
        "name": "solc",
        "version": "0.8.33+commit.64118f21"
    },
    "functionHashes": {
        "CANCELLATION_TIMEOUT()": "1a04f42d",
        "REFUND_TIMEOUT()": "7d57900a",
        "UPGRADE_INTERFACE_VERSION()": "ad3cb1cc",
        "ableToken()": "5241e72f",
        "branchFee()": "3b36a7de",
        "cancelPrompt(uint256)": "13159e64",
        "cancelSpendingLimit()": "7f5a19f1",
        "cancellationFee()": "6ef569a5",
        "escrows(uint256)": "012f52ee",
        "evmAIAgent()": "edc37efc",
        "finalizePayment(uint256)": "69658806",
        "initialize(address,address,address,address,uint256,uint256,uint256,uint256)": "c843e81c",
        "initiateAgentJob(address,uint256,bytes,bytes)": "55786ece",
        "initiateBranch(uint256,uint256,bytes,bytes)": "55c9237c",
        "initiateMetadataUpdate(uint256,bytes,bytes)": "8cb210c1",
        "initiatePrompt(uint256,bytes,bytes)": "588e0b89",
        "initiateRegeneration(uint256,uint256,uint256,bytes,bytes)": "f221c234",
        "metadataUpdateFee()": "ccdb3442",
        "owner()": "8da5cb5b",
        "pendingEscrowCount(address)": "df13c27a",
        "processRefund(uint256)": "dac87ca4",
        "promptFee()": "ecad65b7",
        "proxiableUUID()": "52d1902d",
        "renounceOwnership()": "715018a6",
        "setBranchFee(uint256)": "1052d8b5",
        "setCancellationFee(uint256)": "2dd10ad3",
        "setMetadataUpdateFee(uint256)": "c5224856",
        "setPromptFee(uint256)": "61cfdb1f",
        "setSpendingLimit(uint256,uint256)": "f8152671",
        "setTreasury(address)": "f0f44260",
        "spendingLimits(address)": "658c820a",
        "transferOwnership(address)": "f2fde38b",
        "treasury()": "61d027b3",
        "upgradeToAndCall(address,bytes)": "4f1ef286"
    },
    "gasEstimates": {
        "creation": {
            "codeDepositCost": "1643400",
            "executionCost": "infinite",
            "totalCost": "infinite"
        },
        "external": {
            "CANCELLATION_TIMEOUT()": "227",
            "REFUND_TIMEOUT()": "557",
            "UPGRADE_INTERFACE_VERSION()": "904",
            "ableToken()": "2439",
            "branchFee()": "2374",
            "cancelPrompt(uint256)": "infinite",
            "cancelSpendingLimit()": "18964",
            "cancellationFee()": "2616",
            "escrows(uint256)": "8759",
            "evmAIAgent()": "2926",
            "finalizePayment(uint256)": "infinite",
            "initialize(address,address,address,address,uint256,uint256,uint256,uint256)": "infinite",
            "initiateAgentJob(address,uint256,bytes,bytes)": "infinite",
            "initiateBranch(uint256,uint256,bytes,bytes)": "infinite",
            "initiateMetadataUpdate(uint256,bytes,bytes)": "infinite",
            "initiatePrompt(uint256,bytes,bytes)": "infinite",
            "initiateRegeneration(uint256,uint256,uint256,bytes,bytes)": "infinite",
            "metadataUpdateFee()": "2814",
            "owner()": "infinite",
            "pendingEscrowCount(address)": "3012",
            "processRefund(uint256)": "infinite",
            "promptFee()": "2880",
            "proxiableUUID()": "infinite",
            "renounceOwnership()": "28504",
            "setBranchFee(uint256)": "25594",
            "setCancellationFee(uint256)": "25666",
            "setMetadataUpdateFee(uint256)": "26084",
            "setPromptFee(uint256)": "25842",
            "setSpendingLimit(uint256,uint256)": "54408",
            "setTreasury(address)": "28472",
            "spendingLimits(address)": "6983",
            "transferOwnership(address)": "28967",
            "treasury()": "2574",
            "upgradeToAndCall(address,bytes)": "infinite"
        },
        "internal": {
            "_authorizeUpgrade(address)": "infinite",
            "_processDirectPayment(address,uint256)": "infinite",
            "_processEscrowPayment(address,uint256)": "infinite"
        }
    }
}